:020000040800F2
:10000000580400209D010008D313000821130008A4
:10001000D1130008E50100081F19000800000000C6
:10002000000000000000000000000000F7130008BE
:10003000E701000800000000F5130008F9130008AC
:10004000B7010008B7010008B7010008B7010008B0
:10005000B7010008B7010008B7010008B7010008A0
:10006000B7010008B7010008B7010008B701000890
:10007000B7010008B7010008B7010008B701000880
:10008000B7010008B7010008B7010008B701000870
:10009000B7010008B7010008B7010008B701000860
:1000A000B7010008B7010008B7010008B701000850
:1000B000B7010008B7010008B7010008B701000840
:1000C000B7010008B7010008B7010008B701000830
:1000D000B7010008B7010008B7010008B701000820
:1000E000B7010008B7010008B7010008B701000810
:1000F000B7010008B7010008B7010008B701000800
:10010000000000000000000000000000B70100082F
:10011000B7010008B7010008B7010008B7010008DF
:10012000B7010008B7010008B7010008B7010008CF
:10013000B7010008B701000800000000000000003F
:10014000B7010008B7010008B7010008000000006F
:10015000000000000000000000000000000000009F
:100160000000000000000000B7010008B70100080F
:10017000B7010008000000000000000000000000BF
:1001800000000000B7010008DFF80CD000F018F8FC
:1001900000480047411900085804002006488047DD
:1001A00006480047FEE7FEE7FEE7FEE7FEE7FEE75C
:1001B000FEE7FEE7FEE7FEE7751400088901000888
:1001C000064C074D06E0E06840F0010394E80700A4
:1001D00098471034AC42F6D3FFF7DAFFD019000885
:1001E000F0190008FEE7704770B5044600F0D2F839
:1001F0000546601C02D004480078044400F0CAF8A8
:10020000401BA042FAD370BD040000202DE9F84F36
:10021000DFF864B100234FF0010C4FF0030A4FF0F8
:100220000F090BF1040EA0E00CFA03F6324072D075
:100230004C68022C01D0122C0ED1DC0800EB840893
:10024000D8F820405D07EF0E09FA07F5AC430D69B9
:10025000BD402543C8F8205007685D0091F8048030
:100260000AFA05F408F00308A74308FA05F848EA73
:100270000708C0F800804F68012F05D0022F03D077
:10028000112F01D0122F11D18768D1F80C80A7430C
:1002900008FA05F848EA0708C0F808804768B74335
:1002A0000E79C6F300169E403E434660C668A643DC
:1002B0008C68AC403443C4604C68E40054D52F4C87
:1002C000A56945F00105A561A46923F0030504F0C3
:1002D000010400942A4C2E19B4689D072F0F09FAC7
:1002E00007F5AC43B0F1904F04D0264DA84203D19E
:1002F000012512E0002510E0234DA84201D102257E
:100300000BE0224DA84201D1032506E0204DA84272
:1003100002D1042501E027E00525BD402543B56055
:10032000DBF800405D464E689443F60300D5144365
:100330002C60DEF8004075464E689443B60300D545
:1003400014432C600C4D08352C684E689443F6021B
:1003500000D514432C60084D0C352C684E6894432E
:10036000B60200D514432C605B1C0A6832FA03F411
:100370007FF45AAFBDE8F88F00040140001002403E
:10038000000001400004004800080048000C00483C
:1003900000100048014880687047000004000020F9
:1003A000024881680278114481607047040000208F
:1003B000074810B5016841F010010160032000F00A
:1003C00081F8002000F006F800F024F8002010BDAD
:1003D0000020024070B50D4D04464FF47A71287824
:1003E000B1FBF0F00A490968B1FBF0F000F067FDDD
:1003F00048B9102C07D200222146501E00F042F8C6
:1004000000206C6070BD012070BD00000400002061
:10041000000000201A4808B5816941F0010181619E
:10042000806900F001000090032000F04BF80022EA
:1004300011466FF00B0000F025F8002211466FF016
:100440000A0000F01FF8002211466FF0090000F0CA
:1004500019F800221146501F00F014F8002211462E
:10046000101F00F00FF800221146901E00F00AF84D
:100470000022BDE808401146501E00F003B80000FD
:1004800000100240F0B40E4B1B680C46C3F302236D
:10049000C3F10705042D00D90425191D072901D230
:1004A000002300E0DB1E012606FA05F1491E21406B
:1004B00099409E40761E16403143F0BC00F08ABF42
:1004C0000CED00E0064900F0070208684FF6FF0354
:1004D000184040EA0220034A1043086070470000B9
:1004E0000CED00E00000FA052DE9F84F0446006825
:1004F000804DC0036FD5E8690026C00008D4E869C4
:1005000040F08050E861E869012600F080500090DA
:1005100079480168C90512D40168804641F48071A8
:100520000160FFF737FF074605E000BFFFF732FF26
:10053000C01B642835D8D8F80000C005F6D5286A55
:1005400010F4407053D0A18801F4407181424ED024
:10055000286A4FF4803191FAA1F2B2FA82F2970040
:10056000664A4FF00108174420F44070C7F8008431
:1005700091FAA1F1B1FA81F102EB81010023C1F8F6
:1005800000342862C00732D0FFF704FF074641F26B
:10059000883A4FF0020907E0FFF7FCFEC11B514506
:1005A00002D90320BDE8F88F99FAA9F1B1FA81F1D7
:1005B00041F040014846B8EB511F01D129680CE0D9
:1005C00090FAA0F1B1FA81F141F04001B0EB511F76
:1005D00002D1296A01E015E0696A99FAA9F0B0FA36
:1005E00080F000F01F0008FA00F21142D4D0286A0F
:1005F000616820F44070084328621EB1E86920F069
:100600008050E8612078C00705D0286BA16820F0F1
:100610000300084328632078800705D5286BE1682C
:1006200020F44030084328632078400705D5286B24
:10063000216920F44020084328632078800605D5EE
:10064000286BE16920F010000843286320688003CC
:1006500005D56868A16B20F48000084368602078A5
:10066000400605D5286B216A20F020000843286346
:100670002078000705D5286B616920F440100843F5
:1006800028632078C00605D5286BA16920F44000B6
:10069000084328632088800505D56868E16A20F44E
:1006A0000000084368602078000605D5E86A616AA2
:1006B00020F4F8700843E8622088C00505D5E86A90
:1006C000A16A20F478500843E8622088C00405D568
:1006D000286B216B20F480700843286320888004F5
:1006E00005D5286B616B20F4007008432863002057
:1006F00058E7000000100240007000400000424235
:100700002DE9F047DFF8708105460E46D8F8000065
:1007100000F00700B0420CD2D8F8001021F0070119
:100720003143C8F80010D8F8000000F00700B042CC
:1007300077D12878514C800705D56068A96820F0EA
:10074000F000084360602878C00759D0696801202C
:1007500001290DD0022929D05FF0020393FAA3F2F8
:10076000B2FA82F242F02002520904D0226803E079
:100770004FF40033F2E7626A93FAA3F3B3FA83F318
:1007800003F01F03984002424BD0606820F0030042
:1007900008436060FFF7FEFD6968074641F2883054
:1007A00001290DD00229814617D025E04FF00073B2
:1007B000D4E700BFFFF7EEFDC11B494501D918E0A2
:1007C00081466068C0F381000128F3D118E000BFC2
:1007D000FFF7E0FDC11B49450BD86068C0F38100FD
:1007E0000228F5D10CE000BFFFF7D4FDC11B49453D
:1007F00002D90320BDE8F087606810F00C0FF3D138
:10080000D8F80010404601F00701B1420BD9016849
:1008100021F0070131430160006800F00700B04299
:1008200001D00120E6E72878400705D56068E9682F
:1008300020F4E060084360602878000706D560680F
:10084000296920F4605040EAC100606000F022F89D
:100850006168F02292FAA2F201F0F001B2FA82F29B
:10086000D140074A515CC840064908600020FFF7A4
:10087000B1FD0020BEE70000002002400010024051
:10088000A01900080000002001480068704700001F
:1008900000000020144B10B55A68144802F00C01F7
:1008A00004291DD008291BD14FF4701494FAA4F424
:1008B00002F47011B4FA84F4E1400D4CDB6A615C1F
:1008C0000F2494FAA4F403F00F03B4FA84F4E34081
:1008D000074C1034D203E35C03D5B0FBF3F048437C
:1008E00010BD0448484310BD0010024000127A00B9
:1008F000B019000800093D002DE9F84F05460078C1
:10090000F74EC0074FF0010425D070686704C0F3AC
:100910008100012807D07068C0F3810002281BD134
:100920007068C00318D597FAA7F0B0FA80F040F0CD
:100930002000400901D0306800E0706A97FAA7F102
:10094000B1FA81F101F01F0104FA01F1084264D00B
:10095000686800287DD060E06868B0F5803F0BD003
:1009600010B1B0F5A02F17D0306820F4803030607F
:10097000306820F4802002E0306840F4803030603D
:10098000F06AA96820F00F000843F062686828B395
:10099000FFF700FD80460BE0306840F480203060B7
:1009A000EAE700BFFFF7F6FCA0EB0800642871D867
:1009B00097FAA7F0B0FA80F040F02000400901D08B
:1009C000306800E0706A97FAA7F1B1FA81F101F09E
:1009D0001F0104FA01F10842E4D01EE0FFF7DAFC3F
:1009E000804605E0FFF7D6FCA0EB08006428DED8BF
:1009F00097FAA7F0B0FA80F040F02000400901D04B
:100A0000306800E0706A97FAA7F1B1FA81F101F05D
:100A10001F0104FA01F10842E4D12878DFF8C4820A
:100A200080074FF0000A4FF0020732D570684FF090
:100A3000F80B10F00C0F07D07068C0F3810002288B
:100A400029D17068C00326D497FAA7F0B0FA80F0D5
:100A500000E08BE040F02000400901D0306800E069
:100A6000706A97FAA7F1B1FA81F101F01F0104FA57
:100A700001F1084202D02869012877D130689BFA39
:100A8000ABF26969B2FA82F220F0F80091400843B3
:100A900030605AE064E1286988B394FAA4F0B0FAAF
:100AA00080F048F82040FFF775FC814606E000BF63
:100AB000FFF770FCA0EB0900022898D897FAA7F07E
:100AC000B0FA80F040F02000400901D0306800E02A
:100AD000706A97FAA7F1B1FA81F101F01F0104FAE7
:100AE00001F10842E4D030689BFAABF220F0F80143
:100AF0006869B2FA82F290400143316025E0FFE775
:100B000094FAA4F1B1FA81F148F821A0FFF742FC70
:100B1000814605E0FFF73EFCA0EB09000228CCD897
:100B200097FAA7F0B0FA80F040F02000400901D019
:100B3000306800E0706A97FAA7F1B1FA81F101F02C
:100B40001F0104FA01F10842E4D1287800076CD5AE
:100B5000A869A8B394FAA4F0B0FA80F008EB80007A
:100B6000C0F88044FFF716FC814607E08AE100BF29
:100B7000FFF710FCA0EB090002289ED897FAA7F017
:100B8000B0FA80F040F06000B4EB501F01D1306843
:100B90000BE097FAA7F0B0FA80F040F06000B7EBF6
:100BA000501F01D1306A00E0706A97FAA7F1B1FADC
:100BB00081F101F01F0104FA01F21042D8D034E0B3
:100BC000FFE794FAA4F1B1FA81F108EB8101C1F8D1
:100BD00080A4FFF7DFFB814606E000BFFFF7DAFBEA
:100BE000A0EB090002289AD897FAA7F0B0FA80F093
:100BF00040F06000B4EB501F01D130680BE097FA71
:100C0000A7F0B0FA80F040F06000B7EB501F01D1C0
:100C1000306A00E0706A97FAA7F1B1FA81F101F049
:100C20001F0104FA01F21042D8D12878400774D588
:100C3000F0694FF00009C00009D4F06940F080501D
:100C4000F061F0694FF0010900F0805000902648F3
:100C50000168C90512D4016841F480710160FFF791
:100C600099FB834606E000BFFFF794FBA0EB0B0067
:100C7000642875D81C480068C005F5D5E8680128C7
:100C80000AD008B1052811D0306A20F00100306286
:100C9000306A20F0040002E0306A40F00100306267
:100CA000E868E0B1FFF776FB83460DE0306A40F07C
:100CB00004003062F0E700BFFFF76CFBA0EB0B0114
:100CC00041F2883081424BD897FAA7F0B0FA80F011
:100CD00040F04000B4EB501F08D1306812E01DE036
:100CE00000100240000042420070004097FAA7F056
:100CF000B0FA80F040F04000B7EB501F01D1306AED
:100D000000E0706A97FAA7F1B1FA81F101F01F01D2
:100D100004FA01F21042CFD02EE034E0FFF73AFBA4
:100D2000834607E0FFF736FBA0EB0B0141F288306A
:100D3000814215D897FAA7F0B0FA80F040F0400051
:100D4000B4EB501F01D130680CE097FAA7F0B0FA6D
:100D500080F040F04000B7EB501F02D1306A01E054
:100D600083E0706A97FAA7F1B1FA81F101F01F01EF
:100D700004FA01F21042D5D1B9F1000F03D0F069A5
:100D800020F08050F061E86980B37168C1F381019F
:100D9000022977D04FF080714F00022809D091FAD4
:100DA000A1F0B0FA80F048F820A0FFF7F3FA05466A
:100DB0005EE0894691FAA1F15046B1FA81F1C2464E
:100DC00048F82100FFF7E6FA804605E0FFF7E2FA6F
:100DD000A0EB0800022848D897FAA7F0B0FA80F0F4
:100DE00040F02000400902D0306801E056E0706A0F
:100DF00097FAA7F1B1FA81F101F01F0104FA01F1AC
:100E00000842E3D1D5E908100843716821F4741150
:100E10000843706099FAA9F0B0FA80F04AF82040CF
:100E2000FFF7B8FA054604E0FFF7B4FA401B0228C2
:100E30001BD897FAA7F0B0FA80F040F020004009E4
:100E400001D0306800E0706A97FAA7F1B1FA81F139
:100E500001F01F0104FA01F10842E5D01EE000BFD5
:100E6000FFF798FA401B022802D90320BDE8F88F4B
:100E700097FAA7F0B0FA80F040F02000400902D0C5
:100E8000306801E00CE0706A97FAA7F1B1FA81F1DD
:100E900001F01F0104FA01F10842E1D10020E5E769
:100EA0000120E3E74FF0E0210428086903D020F097
:100EB00004000861704740F00400FAE7704710B57D
:100EC000401EB0F1807F01D3012010BD4FF0E0241F
:100ED00060610F21601700F07DFA0020A0610720FB
:100EE0002061002010BD10B5FFF7E8FF10BD000025
:100EF00030B590F83C20012A3DD0012280F83C20FA
:100F0000CA688B6822F440721A434B6822F48062EC
:100F10001A430B6822F400621A430B6922F48052D0
:100F20001A434B6922F400521A438B6A22F480421E
:100F30001A4322F400421A430B8B22F4702242EA35
:100F400003420E4D03680024AB4202D00C4DAB426D
:100F50000CD18D8C22F4700242EA0552CD6922F048
:100F600080722A43096A22F000720A435A6480F8A8
:100F70003C40002030BD022030BD0000002C01406C
:100F80000034014030B590F83C20012A1FD00122E6
:100F900080F83C200268536894680E4DAA4202D043
:100FA0000D4DAA4203D123F470054B682B4323F067
:100FB00070050B6889682B4324F08004214353603B
:100FC00002689160002180F83C10084630BD022084
:100FD00030BD0000002C01400034014010B5040079
:100FE00003D094F83D0010B107E0012010BD0020AF
:100FF00084F83C00204600F00DF8022084F83D0003
:10100000211D206800F06AFA012084F83D000020CC
:1010100010BD000008B500680649884208D106489E
:10102000816941F400618161806900F40060009091
:1010300008BD0000002C01400010024070B50446BD
:1010400090F83C00012817D0012584F83C5002207C
:1010500084F83D0022689068364E304020F47F408E
:1010600090600868502839D00DDC20285BD005DC62
:1010700098B3102843D153E0022070BD302855D0DA
:1010800040283CD141E0602830D070280CD0B0F529
:10109000805F03D0B0F5005F31D112E02068816835
:1010A000244A7032114016E0CB68D1E90121206852
:1010B00000F077FA21688868304040F07700886057
:1010C0001DE0CB68D1E90121206800F06AFA2068B0
:1010D000816841F48041816011E01EE0CA6849687E
:1010E000206800F0F9FB5021206806E0CA684968D2
:1010F000206800F002FC6021206800F05CFA84F8AF
:101100003D50002084F83C0070BDCA6849682068E2
:1011100000F0E2FB40212068EFE700212068ECE7C7
:1011200010212068E9E720212068E6E730212068C7
:10113000E3E7000088FFFEFF00B50068084985B0BE
:1011400088420BD14015009002200021CDE9010119
:10115000CDE9031069460348FFF758F805B000BD14
:10116000002C01400010004870B5044690F83C0087
:101170000D4601280ED0012684F83C60022084F838
:101180003D000C2A45D007DC5AB1042A1BD0082A9E
:1011900078D12CE0022070BD102A4ED0142A71D1D3
:1011A0005DE0206800F010FA2068816941F00801D4
:1011B00081612068816921F0040181612068816971
:1011C0002A69114311E0206800F04CFA2068816917
:1011D00041F4006181612068816921F4806181614D
:1011E000206881692A6941EA022181614AE0206818
:1011F00000F080FA2068C16941F00801C1612068EF
:10120000C16921F00401C1612068C1692A691143E3
:1012100011E0206800F0B6FA2068C16941F400616D
:10122000C1612068C16921F48061C1612068C16920
:101230002A6941EA0221C16124E0206800F0DCFA59
:101240002068416D41F0080141652068416D21F041
:10125000040141652068416D2A69114311E020684D
:1012600000F002FB2068416D41F400614165206897
:10127000416D21F4806141652068416D2A6941EA30
:101280000221416584F83D60002084F83C0070BD77
:1012900010B5040003D094F83D0010B107E0012020
:1012A00010BD002084F83C00204600F00CF802201D
:1012B00084F83D00211D206800F010F9012084F819
:1012C0003D00002010BD704710B5044600680122A3
:1012D00000F05CF90D48216881420BD00C48814236
:1012E00008D00C48814205D00B48814202D00B48FF
:1012F000814203D1486C40F4004048642068016892
:1013000041F001010160002010BD0000002C0140EF
:1013100000340140004001400044014000480140C9
:10132000FEE7000010B529489AB027490160142152
:101330000024C0E901144FF4C871C0E903144461EA
:101340008461FFF74BFE00B1FEE74FF4805015902B
:1013500015A91E48FFF772FE00B1FEE71B48FFF714
:1013600097FF00B1FEE71294139412A91748149442
:10137000FFF708FE00B1FEE76020CDE90B040D94F5
:101380000E940F94109400220BA910481194FFF7AB
:10139000EBFE00B1FEE700944FF40050CDE90440AD
:1013A00001940294039400030694CDE90740099444
:1013B000694606480A94FFF79BFD00B1FEE7034823
:1013C000FFF7BAFE1AB010BD002C01401400002037
:1013D000FEE770470907090E002806DA00F00F0043
:1013E00000F1E02080F8141D704700F1E02080F843
:1013F000001470477047704710B5FEF7D1FFBDE885
:101400001040FFF770BD10B59EB002200F90012074
:10141000139010200024149016940FA8FFF76CFA74
:1014200000B1FEE70F20CDE919041B941C940021A4
:1014300019A81D94FFF764F900B1FEE74FF480503E
:1014400000900C946846FFF74FF800B1FEE7FFF7F5
:101450001BFA4FF47A71B0FBF1F0FFF730FD042076
:10146000FFF720FD00221146501EFFF70BF81EB0BB
:1014700010BD00001448016841F470010160134878
:10148000016841F0010101604168114A1140416069
:101490000168104A11400160016821F48021016057
:1014A000416821F4FE014160C16A21F00F01C1626F
:1014B000016B094A11400163002181600249C003A8
:1014C000803908607047000088ED00E0001002409D
:1014D0000CC07FF8FFFFF6FECCFC00FF2DE9F043C7
:1014E0000268234B234D244E244C4FF080499842F0
:1014F00007D0484505D0A84203D0B04201D0A04251
:1015000003D122F070074A683A431D4FDFF874C0D8
:10151000DFF8748098420DD048450BD0A84209D01E
:10152000B04207D0A04205D0B84203D0604501D0F8
:10153000404503D122F44075CA682A434D6922F020
:1015400080022A4302608A68C2620A688262984204
:1015500007D0A04205D0B84203D0604501D0404535
:1015600001D10969016301214161BDE8F0830000F7
:10157000002C0140000400400008004000340140FD
:1015800000400140004401400048014010B50123E3
:10159000046A8B409C430462036A8A4013430362DB
:1015A00010BD10B5846842EA032224F47F440A4344
:1015B0002243826010BD826822F070020A4342F02A
:1015C00007018160704700002DE9F043026A22F0B4
:1015D00001020262056A436882691C4C25F002051B
:1015E00022400C6822F0030214438A68194E2A43F1
:1015F000174D194FDFF864C0DFF86490A84207D098
:10160000B04205D0B84203D0604501D0484506D16C
:1016100022F00808CA6842EA080222F00402A8423E
:1016200007D0B04205D0B84203D0604501D048454C
:1016300005D14D6923F440731D438B692B434360EF
:101640008461496841630262BDE8F0838FFFFEFF59
:10165000002C0140003401400040014000440140A2
:1016600000480140F0B5026A22F010020262056AE9
:1016700042688369194C1B4E23400C6823F4407365
:1016800043EA042425F020038D6843EA0513144D32
:10169000A84201D0B04206D1CF6823F0800343EACC
:1016A000071323F04003A8420AD0B04208D00E4DE1
:1016B000A84205D00D4DA84202D00D4DA84207D139
:1016C0004D6922F4406242EA85028D6942EA850250
:1016D00042608461496881630362F0BDFF8FFFFE51
:1016E000002C014000340140004001400044014012
:1016F00000480140F0B5026A22F480720262056A75
:101700004368C269194C1B4E22400C6822F0030248
:10171000144325F400728D6842EA0522144DA84254
:1017200001D0B04206D1CF6822F4006242EA07221B
:1017300022F48062A8420AD0B04208D00E4DA842DE
:1017400005D00E4DA84202D00D4DA84207D14D69DB
:1017500023F4405343EA05138D6943EA05134360BC
:10176000C4614968C1630262F0BD00008FFFFEFFE3
:10177000002C014000340140004001400044014081
:101780000048014030B5026A22F480520262046AC5
:101790004268C369124D24F400542B400D6823F4B1
:1017A000407343EA05238D6844EA05340D4DA84291
:1017B0000BD00D4DA84208D00C4DA84205D00C4DC1
:1017C000A84202D00B4DA84204D14D6922F48042B8
:1017D00042EA85124260C36149680164046230BD17
:1017E000FF8FFFFE002C014000340140004001400B
:1017F000004401400048014030B5026A22F48032C2
:101800000262046A4268436D114D2B400D681D430E
:1018100024F400330C8943EA04430E4CA0420BD05D
:101820000D4CA04208D00D4CA04205D00C4CA0425B
:1018300002D00C4CA04204D14C6922F4803242EA1E
:1018400004224260456549688165036230BD00003D
:101850008FFFFEFF002C014000340140004001409A
:10186000004401400048014030B5026A22F4801271
:101870000262046A4268436D114D24F400142B4047
:101880000D6843EA05230D8944EA05540D4DA8422D
:101890000BD00D4DA84208D00C4DA84205D00C4DE0
:1018A000A84202D00B4DA84204D14D6922F48022F7
:1018B00042EA8522426043654968C165046230BDE1
:1018C000FF8FFFFE002C014000340140004001402A
:1018D000004401400048014010B5036A046A24F046
:1018E00001040462846924F0F00444EA021423F041
:1018F0000A020A438461026210BD10B5036A23F034
:10190000100303628369046A23F4704343EA0232DA
:1019100024F0A00343EA01118261016210BDFEE7D9
:1019200002E008C8121F08C1002AFAD170477047A8
:10193000002001E001C1121F002AFBD17047000006
:1019400008B5FEF735FDFFF75EFD1248416941F429
:1019500000114161406900F400100090FFF7E2FCC3
:1019600000210D48FFF7B0FC0B4D0C4C2088296876
:10197000486320886188084420802088282801D076
:10198000208810B96088404260803220FEF72CFC2D
:10199000ECE70000001002401400002010000020BE
:1019A000000000000000000001020304060708090F
:1019B00002030405060708090A0B0C0D0E0F101090
:1019C0000102030405060708090A0B0C0D0E0F108F
:1019D000F019000800000020140000002019000881
:1019E000041A000814000020440400003019000804
:1019F00000127A000100000010000000000000004A
:041A000000000200E0
:040000050800018965
:00000001FF
